{
  "contractName": "OAT_token",
  "abi": [
    {
      "constant": true,
      "inputs": [],
      "name": "totalSupply",
      "outputs": [
        {
          "name": "",
          "type": "uint256"
        }
      ],
      "payable": false,
      "stateMutability": "view",
      "type": "function"
    },
    {
      "inputs": [],
      "payable": false,
      "stateMutability": "nonpayable",
      "type": "constructor"
    }
  ],
  "bytecode": "0x608060405234801561001057600080fd5b506207a120600081905550609e806100296000396000f3fe608060405260043610603f576000357c0100000000000000000000000000000000000000000000000000000000900463ffffffff16806318160ddd146044575b600080fd5b348015604f57600080fd5b506056606c565b6040518082815260200191505060405180910390f35b6000548156fea165627a7a72305820b7b88e96bad594350863360179d0db71edd2c47ca6ab663f34ef4f1a87783e750029",
  "source": "pragma solidity ^0.5.0; \n\ncontract OAT_token{\n\t// Constructor (sets value for # of tokens we will have)\n\t// Set the total number of tokens\n\t// Read the total number of tokens\n\tuint256 public totalSupply;\n\n\tconstructor() public{\n\t\t// store number of tokens that will exist, set to a variable\n\t\ttotalSupply = 500000; \n\t}\n}",
  "sourcePath": "/Users/sofiabianchi/OAT/contracts/OAT_token.sol",
  "compiler": {
    "name": "solc",
    "version": "0.5.0+commit.1d4f565a.Emscripten.clang"
  },
  "schemaVersion": "3.0.2",
  "updatedAt": "2022-08-03T15:56:21.422Z",
  "devdoc": {
    "methods": {}
  },
  "userdoc": {
    "methods": {}
  }
}